:1000000019C0A2C032C031C030C02FC02EC02DC018
:100010002CC02BC02AC029C028C027C026C025C09C
:1000200077C223C022C021C020C01FC01EC01DC077
:100030001CC01BC011241FBECFEFD2E0DEBFCDBF5E
:1000400011E0A0E0B1E0E0E7F9E002C005900D9218
:10005000A830B107D9F711E0A8E0B1E001C01D92C6
:10006000A531B107E1F72BD381C4CACF5F9A84EFE2
:1000700091E028EC30E0F9013197F1F70197D9F7D9
:100080005F9884EC99E028EC30E0F9013197F1F7C2
:100090000197D9F75F9A84EC99E028EC30E0F901F8
:1000A0003197F1F70197D9F7809108018823A1F0E2
:1000B0005F9884EC99E028EC30E0F9013197F1F792
:1000C0000197D9F75F9A84EC99E028EC30E0F901C8
:1000D0003197F1F70197D9F708958150873030F4BF
:1000E000E82FF0E0E050FF4F808108958EE0089502
:1000F000869586959FE0981B892F089583709FE0D1
:10010000981B892F0895CF93FCD18823D9F45F9849
:1001100080910801882349F4C0910C0180910A0163
:10012000DCDF682F8C2FDFD10DC090910901209169
:100130000901969596958FE02370682F621B891BA5
:1001400041E022D1CF9108951F920F920FB60F92E6
:1001500011242F933F934F935F936F937F938F93CC
:100160009F93AF93BF93EF93FF93CDDFFF91EF91F9
:10017000BF91AF919F918F917F916F915F914F91BF
:100180003F912F910F900FBE0F901F901895209ABE
:10019000289810920E0110920F01109214011092E3
:1001A000100184E680930D0183E085BDEEE6F0E06A
:1001B0008081816080830895CF93DF93DC0120E00C
:1001C00030E0C1E0D0E060E870E0E22F822F869559
:1001D000AE0102C0440F551F8A95E2F7CA018A2377
:1001E0009B23E695E695E695A90147705070F0E0EF
:1001F000EF5EFE4F5081009739F0CB0102C095951C
:1002000087954A95E2F70BC0CB0102C0959587957B
:100210004A95E2F720FF03C0582B508303C0809516
:10022000852380832F5F3F4F2831310571F610926F
:10023000100180910D0180930E01DF91CF910895FF
:10024000EF92FF920F931F93CF93DF9320E030E064
:10025000C42FD0E040E850E0062F10E0A82FB0E017
:10026000E22F2A3060F5622F66957D0102C0F59479
:10027000E7946A95E2F7E695E695E695C9018770F9
:100280009070F0E0EF5EFE4FE0FE09C060817A0101
:1002900002C0F594E7948A95E2F7C7010DC060812A
:1002A0007A0102C0F594E7948A95E2F7C70120FF2E
:1002B00003C06E29608355C0809586231BC0C90189
:1002C000243128F50A9795958795E695E695E69564
:1002D000B90167707070F0E0EF5EFE4F7081081733
:1002E000190751F4CA0102C0959587956A95E2F7FE
:1002F00080958723808335C0CA0102C09595879574
:100300006A95E2F720FFF4CF782B70832AC04497D8
:1003100095958795BE0102C0759567958A95E2F718
:10032000C9018770907060FF03C0609113010EC017
:100330006091130120FF0AC07A0102C0F594E7948E
:100340008A95E2F76E29609313010BC0FA0102C08F
:10035000F595E7958A95E2F7CF01809586238093FE
:1003600013012F5F3F4F2831310509F079CF1092EB
:10037000100180910D0180930E01DF91CF911F91AB
:100380000F91FF90EF9008950F931F93CF93DF93FA
:1003900020E030E0A42FB0E040E850E0C62FD0E0ED
:1003A000E82FF0E0822F283028F586958F0102C0D3
:1003B000159507958A95E2F76091110100FF08C035
:1003C000CA01022E02C0959587950A94E2F70DC0E6
:1003D000CA01022E02C0959587950A94E2F720FF84
:1003E00004C0682B6093110160C0809586238093C0
:1003F00011015BC0203168F5C90108979595879573
:10040000BE0102C0759567958A95E2F7C9018770AC
:10041000907060FF0AC0609112018A0102C01595B8
:1004200007958A95E2F7C8010FC0609112018A0111
:1004300002C0159507958A95E2F7C80120FF04C010
:10044000602B6093120131C0809586238093120146
:100450002CC0C901409795958795BD0102C075953F
:1004600067958A95E2F7C9018770907060FF0AC0AE
:10047000609113018A0102C0159507958A95E2F7EC
:10048000C8010FC0609113018A0102C0159507953C
:100490008A95E2F7C80120FF04C0602B6093130126
:1004A00004C080958623809313012F5F3F4F28312E
:1004B000310509F077CF1092100180910D018093E2
:1004C0000E01DF91CF911F910F910895809311013B
:1004D00060931201409313011092100180910D015D
:1004E00080930E010895809311016295607F60935F
:1004F000120181E08093100180910D0180930E0123
:10050000089590910E0181E0992309F480E0089507
:100510001F920F920FB60F9211245F936F937F93E8
:100520008F939F93AF93BF93EF93FF9380910E01AF
:10053000882309F4B6C080911001882321F081300E
:1005400009F0ADC04EC080911401882321F0809144
:100550000F01882319F480E880930F018091140122
:10056000803350F58091140180FD0FC0289AE091EE
:100570001401E295EF70F0E0EF5EFE4F8081909104
:100580000F01892331F189E825C02898E0911401F1
:10059000E295EF70F0E0EF5EFE4F808190910F01E9
:1005A000892311F088ED01C089E886BD80910F0193
:1005B000869580930F010FC080911401803321F440
:1005C000289A88ED86BD05C080911401813309F415
:1005D000289888ED86BD80911401803508F459C0B3
:1005E00050C080911401882321F080910F0188234D
:1005F00019F480E880930F0180911401823030F467
:10060000809114018823B1F1289A18C080911401B7
:100610008B3180F58091140180FD12C02898809163
:10062000140190E0029760E170E063D16F5E7E4F4D
:10063000FB01808190910F018923E9F088ED1CC0B6
:10064000289A8091140190E0029760E170E051D106
:100650006F5E7E4FFB01808190910F01892311F025
:1006600080EB01C088ED86BD80910F018695809357
:100670000F0103C0289880EB86BD80911401803261
:1006800040F01092140180910E01815080930E0170
:1006900008C0809114018F5F8093140102C01092F2
:1006A0000E01FF91EF91BF91AF919F918F917F913B
:1006B0006F915F910F900FBE0F901F90189567DD9F
:1006C000579A81E04A9980E080930B0183E090E0A3
:1006D00037D18093080182E090E032D180930C0101
:1006E00081E090E02DD180930A0180E090E028D154
:1006F0008093090180910801882379F08091080195
:10070000813059F01092080180910B01882329F45F
:100710006091080183E090E01BD180910A0188304C
:1007200058F010920A0180910B01882329F46091FE
:100730000A0181E090E00CD180910901803158F0EC
:100740001092090180910B01882329F4609109011D
:1007500080E090E0FDD052988091690081608093A4
:100760006900E89A789480910B01882371F47EDC0B
:10077000D0E0FF24C0E000E088ECC82ED12C1FE0C0
:1007800090E5A92E93ECB92E02C0BDDCF1CFF39415
:10079000499B3CC0013009F03BC08091080188238F
:1007A000E9F480910A018F5F80930A0180910A0128
:1007B000883010F010920A0160910A0181E090E007
:1007C000C7D09FDE8823C9F45F9800910C01809107
:1007D0000A0183DC682F802F86DE0FC05F9880912E
:1007E000090190910901869586959370612F691B87
:1007F000912F981B892F41E0C7DD24EC39E0C60119
:100800000197F1F721503040D1F702C001E001C05B
:1008100000E0489905C0D13208F058C0DF5F56C0EB
:10082000C13009F055C080910801D13208F040C0B4
:100830008823A1F4F0920C0160910C0182E090E019
:1008400087D05FDE882361F55F98C0910C018091AD
:100850000A0143DC682F8C2F46DE22C080910901FB
:100860008F5F8093090180910901803110F010920F
:1008700009016091090180E090E06AD042DE88239E
:1008800079F45F9880910901909109018695869588
:100890009370612F691B912F981B892F41E074DDA4
:1008A00084EC99E0F6013197F1F70197D9F710C080
:1008B000882319F4C093080102C0109208016091C6
:1008C000080183E090E044D0D1DB02C0C1E002C067
:1008D000D0E0C0E016DE882339F08BB180588BB9A8
:1008E000C5010197F1F701C05F9AC5010197F1F7C2
:1008F0004ECF97FB092E07260AD077FD04D00CD0E7
:1009000006D000201AF4709561957F4F0895F6F790
:10091000909581959F4F0895AA1BBB1B51E107C07D
:10092000AA1FBB1FA617B70710F0A61BB70B881F7F
:10093000991F5A95A9F780959095BC01CD0108950E
:10094000F999FECF12BC81BDF89A992780B5089518
:10095000262FF999FECF1FBA12BC81BD20BD0FB65C
:10096000F894FA9AF99A0FBE01960895F894FFCF79
:080970000C0A060201090D004A
:00000001FF
