:1000000019C08DC027C026C025C024C023C022C06F
:1000100021C020C01FC01EC01DC01CC01BC01AC0F4
:10002000B0C318C017C016C015C014C013C012C08A
:1000300011C010C011241FBECFEFD2E0DEBFCDBF74
:1000400011E0A0E0B1E001C01D92AC30B107E1F7D2
:10005000A5D0ABC4D5CF5F9A84EF91E028EC30E017
:10006000F9013197F1F70197D9F75F9884EC99E09E
:1000700028EC30E0F9013197F1F70197D9F75F9A51
:1000800084EC99E028EC30E0F9013197F1F7019721
:10009000D9F7809100018823A1F05F9884EC99E062
:1000A00028EC30E0F9013197F1F70197D9F75F9A21
:1000B00084EC99E028EC30E0F9013197F1F70197F1
:1000C000D9F708958430C1F0853038F4823081F05A
:1000D000833080F4813051F407C0863089F0863057
:1000E00068F0873019F40EC08CE008958EE0089512
:1000F0008AE0089586E0089582E0089581E00895F9
:1001000089E008958DE00895982F969596958FE053
:10011000891B0895982F93708FE0891B08951F9273
:100120000F920FB60F9211241F932F933F934F936B
:100130005F936F937F938F939F93AF93BF93EF934F
:10014000FF931AD38823C1F45F988091000188231C
:1001500049F41091030180910201B4DF682F812FCF
:10016000FDD20AC080910101CFDF9091010193700F
:100170006FE0691B41E034D2FF91EF91BF91AF91E5
:100180009F918F917F916F915F914F913F912F91AF
:100190001F910F900FBE0F901F9018958F929F92F6
:1001A000BF92CF92DF92EF92FF920F931F93DF9354
:1001B000CF930F92CDB7DEB7F5D0579A80E090E09D
:1001C000DED38093000181E090E0D9D380930301D6
:1001D00082E090E0D4D38093020183E090E0CFD31B
:1001E0008093010180910001882359F080910001E2
:1001F000813039F0109200016091000180E090E0C0
:10020000C6D380910201883038F0109202016091CB
:10021000020182E090E0BBD380910101803138F08F
:10022000109201016091010183E090E0B0D313DFEF
:10023000529880916900816080936900E89A78946F
:100240001982FF24EE2400E028EC822E912C9FE0FE
:10025000B92E80E5C82E83ECD82EE394499903C0CB
:1002600081E0898337C0E981E130A1F58091000107
:100270008823E9F4809102018F5F809302018091CD
:100280000201883010F0109202016091020182E0B8
:1002900090E07DD371D28823A9F45F981091030177
:1002A000809102010FDF682F812F58D20BC05F9819
:1002B0008091010129DF9091010193706B2D691BE1
:1002C00041E08ED184EC99E0F4013197F1F7019788
:1002D000D9F71982489906C0013208F40F5FFF244C
:1002E000F39456C0F1E0FF1609F051C0013208F056
:1002F0003EC0809100018823A1F4E0920301609147
:10030000030181E090E043D337D2882341F55F9821
:100310001091030180910201D5DE682F812F1ED23A
:100320001EC0809101018F5F8093010180910101C6
:10033000803110F0109201016091010183E090E0A2
:1003400026D31AD2882359F45F9880910101DCDE0C
:100350009091010193706B2D691B41E041D184ECB8
:1003600099E0F4013197F1F70197D9F70FC0809127
:100370000001882319F4F092000102C010920001DC
:100380006091000180E090E002D365DEFF2400E090
:10039000F3D1882311F05F9801C05F9AC6010197DD
:1003A000F1F75BCF209A2898109205011092060170
:1003B00010920B011092070184E68093040183E000
:1003C00085BDEEE6F0E080818160808308950F9323
:1003D0001F93CF93DF93EC0140E050E001E010E089
:1003E000A0E8B0E0E42F842F8695980102C0220F88
:1003F000331F8A95E2F7C9018C239D23892B91F045
:10040000E695E695E695F0E0E85FFE4F2081CA01AB
:1004100087709070BD0102C0759567958A95E2F767
:10042000CB0122C0842F869586958695BA01677088
:10043000707040FF0EC0E82FF0E0E85FFE4F2081B3
:10044000CD0102C0959587956A95E2F7282B208308
:100450000EC0E82FF0E0E85FFE4F2081CD0102C022
:10046000959587956A95E2F78095822380834F5F03
:100470005F4F4831510509F0B5CF109207018091C7
:10048000040180930501DF91CF911F910F91089591
:10049000EF92FF920F931F93CF93DF93C0E0D0E0D2
:1004A000E42EFF2440E850E0062F10E0682F70E0B3
:1004B000EC2FCA3058F48C2F86959B0102C03595DD
:1004C00027958A95E2F720FF1DC00AC0C43108F0C5
:1004D0003FC0CE010A97959587950817190791F4A3
:1004E000E695E695E695F0E0E85FFE4F2081CE01C7
:1004F00087709070DA0102C0B595A7958A95E2F7EA
:10050000CD0122C08E2F869586958695DE01A77037
:10051000B070C0FF0EC0E82FF0E0E85FFE4F208112
:10052000CA0102C095958795AA95E2F7282B2083EA
:1005300045C0E82FF0E0E85FFE4F2081CA0102C00D
:1005400095958795AA95E2F780958223808336C09A
:10055000CE01449795958795F70102C0F595E795EB
:100560008A95E2F7E0FF0DC020910A01CE01877065
:100570009070DA0102C0B595A7958A95E2F7CD0192
:1005800019C0DE01A770B070C0FF0CC020910A0135
:10059000CA0102C095958795AA95E2F7282B20936A
:1005A0000A010CC020910A01CA0102C095958795E5
:1005B000AA95E2F78095822380930A012196C8319B
:1005C000D10509F075CF1092070180910401809345
:1005D0000501DF91CF911F910F91FF90EF9008954A
:1005E0000F931F93CF93DF93E0E0F0E0C42FD0E0B0
:1005F000A0E8B0E070E0482F50E08E2FE83070F5B2
:1006000086958A0102C0159507958A95E2F700FF45
:1006100006C020910801CF018770907013C0CF01F0
:1006200087709070E0FF0CC0209108018D0102C01E
:10063000159507958A95E2F7202B2093080171C044
:10064000209108018D0102C0159507958A95E2F762
:10065000C801809582238093080163C0E03188F54A
:10066000CF010897959587959B0102C035952795F1
:100670008A95E2F720FF06C020910901CF0187701B
:10068000907013C0CF0187709070E0FF0CC0209174
:1006900009018D0102C0159507958A95E2F7202B77
:1006A000209309013EC0209109018D0102C01595DA
:1006B00007958A95E2F7C801809582238093090106
:1006C00030C0CF014097959587959E0102C0359522
:1006D00027958A95E2F720FF06C020910A01CF01F5
:1006E0008770907013C0CF0187709070E0FF0CC0CE
:1006F00020910A018D0102C0159507958A95E2F7B0
:10070000202B20930A010DC020910A018D0102C007
:10071000159507958A95E2F7C80180958223809305
:100720000A013196E831F10509F067CF109207010F
:100730008091040180930501DF91CF911F910F916A
:100740000895809308016093090140930A01109273
:1007500007018091040180930501089580930801A9
:100760006295607F6093090181E080930701809129
:10077000040180930501089580910501811181E0B4
:1007800008951F920F920FB60F9211245F936F93EB
:100790007F938F939F93AF93BF93EF93FF9380913A
:1007A0000501882309F4B6C080910701882321F050
:1007B000813009F0ADC04EC080910B01882321F03B
:1007C00080910601882319F480E8809306018091C6
:1007D0000B01803350F580910B0180FD0FC0289AEA
:1007E000E0910B01E295EF70F0E0E85FFE4F808151
:1007F00090910601892331F189E825C02898E0917C
:100800000B01E295EF70F0E0E85FFE4F8081909180
:100810000601892311F088ED01C089E886BD809129
:1008200006018695809306010FC080910B018033ED
:1008300021F4289A88ED86BD05C080910B01813393
:1008400009F4289888ED86BD80910B01803508F465
:1008500059C050C080910B01882321F0809106017E
:10086000882319F480E88093060180910B0182307F
:1008700030F480910B018823B1F1289A18C080913F
:100880000B018B3180F580910B0180FD12C02898FF
:1008900080910B0190E0029760E170E049D0FB018C
:1008A000E85FFE4F8081909106018923E9F088ED91
:1008B0001CC0289A80910B0190E0029760E170E0E3
:1008C00037D0FB01E85FFE4F8081909106018923BC
:1008D00011F080EB01C088ED86BD80910601869500
:1008E0008093060103C0289880EB86BD80910B01A0
:1008F000803240F010920B0180910501815080936D
:10090000050108C080910B018F5F80930B0102C02D
:1009100010920501FF91EF91BF91AF919F918F913F
:100920007F916F915F910F900FBE0F901F90189560
:1009300097FB092E07260AD077FD04D00CD006D0ED
:1009400000201AF4709561957F4F0895F6F7909501
:1009500081959F4F0895AA1BBB1B51E107C0AA1F99
:10096000BB1FA617B70710F0A61BB70B881F991F50
:100970005A95A9F780959095BC01CD010895F999F4
:10098000FECF12BC81BDF89A992780B50895262F15
:10099000F999FECF1FBA12BC81BD20BD0FB6F894E5
:0E09A000FA9AF99A0FBE01960895F894FFCFC7
:00000001FF
