:1000000019C0D1C032C031C030C02FC02EC02DC0E9
:100010002CC02BC02AC029C028C027C026C025C09C
:10002000C5C223C022C021C020C01FC01EC01DC029
:100030001CC01BC011241FBECFEFD2E0DEBFCDBF5E
:1000400011E0A0E0B1E0E8EDF7E002C005900D920C
:10005000A830B107D9F711E0A8E0B1E001C01D92C6
:10006000A231B107E1F702D0B5C3CACFDF92EF9258
:10007000FF920F931F93CF93DF93C7D0579A80E0DF
:1000800090E092D38093090181E090E08DD380933A
:10009000080180910801883038F0109208016091C1
:1000A000080181E090E088D35298809169008160D6
:1000B00080936900E89A7894FF24DD24EE24C8EC4C
:1000C000D0E000E513ECF394499B2CC08E2D8130D9
:1000D00061F5809108018F5F80930801809108018C
:1000E000883010F0109208016091080181E090E0E2
:1000F00063D355D2882371F480910901E0910801FE
:10010000E83028F4F0E0E050FF4F608101C06EE07D
:1001100038D25F9A84EC99E0FE013197F1F70197AC
:10012000D9F703C0EE24E39401C0EE24489B23C01A
:100130008D2D813019F5F09209016091090180E05F
:1001400090E03AD32CD2882371F480910901E09198
:100150000801E83028F4F0E0E050FF4F608101C072
:100160006EE00FD25F9A84EC99E0FE013197F1F7CF
:100170000197D9F703C0DD24D39401C0DD240FD249
:10018000882311F05F9801C05F9AC8010197F1F7C9
:100190009ACF883030F4E82FF0E0E050FF4F8081B4
:1001A00008958EE008951F920F920FB60F921124BA
:1001B0002F933F934F935F936F937F938F939F936F
:1001C000AF93BF93EF93FF93EAD1882369F48091B3
:1001D0000901E0910801E83028F4F0E0E050FF4F19
:1001E000608101C06EE0CDD1FF91EF91BF91AF91E1
:1001F0009F918F917F916F915F914F913F912F913F
:100200000F900FBE0F901F901895209A289810926B
:100210000B0110920C011092110110920D0184E655
:1002200080930A0183E085BDEEE6F0E08081816085
:10023000808308951F93CF93DF9320E030E061E047
:1002400070E040E850E0E22FA22FA695EB0102C03B
:10025000CC0FDD1FAA95E2F7DE01A823B923109782
:1002600059F0E695E695E695F0E0E25FFE4F1081E5
:10027000D901A770B07019C0E695E695E695D90149
:10028000A770B07020FF0DC0F0E0E25FFE4F10815C
:10029000EA0102C0D595C795AA95E2F71C2B1083F9
:1002A0000EC0F0E0E25FFE4F1081EA0102C0D5957A
:1002B000C795AA95E2F7DE01A095A123A0832F5F41
:1002C0003F4F2831310509F0BECF10920D018091CA
:1002D0000A0180930B01DF91CF911F910895EF9256
:1002E000FF921F93CF93DF9320E030E050E0E0E8EF
:1002F000F0E070E090E0122F2A3058F4A22FA6957B
:100300007C0102C0F594E794AA95E2F7E0FE16C0DE
:1003100009C02431C8F5D9011A97B595A7956A1770
:100320007B0761F4169516951695C12FD0E0C25F34
:10033000DE4F1881D901A770B0701BC016951695B5
:100340001695D901A770B07020FF0EC0C12FD0E064
:10035000C25FDE4F18817F0102C0F594E794AA9531
:10036000E2F71E29188340C0C12FD0E0C25FDE4FE4
:1003700018817F0102C0F594E794AA95E2F7D701AE
:10038000A095A123A88330C0D9015497B595A7950E
:10039000EA0102C0D595C795AA95E2F7C0FF06C04D
:1003A00010911001D901A770B07013C0D901A770C6
:1003B000B07020FF0CC010911001EF0102C0D59564
:1003C000C795AA95E2F71C2B109310010DC0109150
:1003D00010017F0102C0F594E794AA95E2F7D701D6
:1003E000A095A123A09310012F5F3F4F2831310525
:1003F00009F081CF10920D0180910A0180930B01C9
:10040000DF91CF911F91FF90EF9008951F93CF93AD
:10041000DF9320E030E050E0E0E8F0E070E090E0D2
:10042000A22F283070F5A695EC0102C0D595C7958E
:10043000AA95E2F7C0FF06C010910E01D901A7707E
:10044000B07013C0D901A770B07020FF0CC010911C
:100450000E01EF0102C0D595C795AA95E2F71C2BB6
:1004600010930E0171C010910E01EF0102C0D595DD
:10047000C795AA95E2F7DE01A095A123A0930E01EE
:1004800063C0203188F5D9011897B595A795EB0180
:1004900002C0D595C795AA95E2F7C0FF06C0109196
:1004A0000F01D901A770B07013C0D901A770B07047
:1004B00020FF0CC010910F01EF0102C0D595C79528
:1004C000AA95E2F71C2B10930F013EC010910F016B
:1004D000EF0102C0D595C795AA95E2F7DE01A09578
:1004E000A123A0930F0130C0D9015097B595A795CE
:1004F000EA0102C0D595C795AA95E2F7C0FF06C0EC
:1005000010911001D901A770B07013C0D901A77064
:10051000B07020FF0CC010911001EF0102C0D59502
:10052000C795AA95E2F71C2B109310010DC01091EE
:100530001001EF0102C0D595C795AA95E2F7DE013B
:10054000A095A123A09310012F5F3F4F28313105C3
:1005500009F066CF10920D0180910A0180930B0182
:10056000DF91CF911F91089580930E0160930F0149
:100570004093100110920D0180910A0180930B01AC
:10058000089580930E016295607F60930F0181E072
:1005900080930D0180910A0180930B010895909141
:1005A0000B0181E0992309F480E008951F920F92D6
:1005B0000FB60F9211245F936F937F938F939F9346
:1005C000AF93BF93EF93FF9380910B01882309F4BE
:1005D000B6C080910D01882321F0813009F0ADC0B3
:1005E0004EC080911101882321F080910C01882355
:1005F00019F480E880930C0180911101803350F54B
:100600008091110180FD0FC0289AE0911101E295BF
:10061000EF70F0E0E25FFE4F808190910C01892342
:1006200031F189E825C02898E0911101E295EF7039
:10063000F0E0E25FFE4F808190910C01892311F080
:1006400088ED01C089E886BD80910C018695809374
:100650000C010FC080911101803321F4289A88ED9C
:1006600086BD05C080911101813309F4289888ED79
:1006700086BD80911101803508F459C050C0809129
:100680001101882321F080910C01882319F480E85E
:1006900080930C0180911101823030F4809111011E
:1006A0008823B1F1289A18C0809111018B3180F50F
:1006B0008091110180FD12C028988091110190E075
:1006C000029760E170E049D0625F7E4FFB0180815C
:1006D00090910C018923E9F088ED1CC0289A809143
:1006E000110190E0029760E170E037D0625F7E4FC9
:1006F000FB01808190910C01892311F080EB01C0F6
:1007000088ED86BD80910C01869580930C0103C015
:10071000289880EB86BD80911101803240F01092C4
:10072000110180910B01815080930B0108C08091D1
:1007300011018F5F8093110102C010920B01FF9194
:10074000EF91BF91AF919F918F917F916F915F9149
:100750000F900FBE0F901F90189597FB092E07263C
:100760000AD077FD04D00CD006D000201AF4709582
:1007700061957F4F0895F6F7909581959F4F089565
:10078000AA1BBB1B51E107C0AA1FBB1FA617B707B7
:1007900010F0A61BB70B881F991F5A95A9F78095D3
:1007A0009095BC01CD010895F999FECF12BC81BD91
:1007B000F89A992780B50895262FF999FECF1FBA88
:1007C00012BC81BD20BD0FB6F894FA9AF99A0FBEFB
:0807D00001960895F894FFCF93
:0807D8000E0C0A060201090DD6
:00000001FF
